{
  "address": "0x9bE634797af98cB560DB23260b5f7C6e98AcCAcf",
  "abi": [
    {
      "inputs": [
        {
          "internalType": "address",
          "name": "spender",
          "type": "address"
        },
        {
          "internalType": "uint256",
          "name": "allowance",
          "type": "uint256"
        },
        {
          "internalType": "uint256",
          "name": "needed",
          "type": "uint256"
        }
      ],
      "name": "ERC20InsufficientAllowance",
      "type": "error"
    },
    {
      "inputs": [
        {
          "internalType": "address",
          "name": "sender",
          "type": "address"
        },
        {
          "internalType": "uint256",
          "name": "balance",
          "type": "uint256"
        },
        {
          "internalType": "uint256",
          "name": "needed",
          "type": "uint256"
        }
      ],
      "name": "ERC20InsufficientBalance",
      "type": "error"
    },
    {
      "inputs": [
        {
          "internalType": "address",
          "name": "approver",
          "type": "address"
        }
      ],
      "name": "ERC20InvalidApprover",
      "type": "error"
    },
    {
      "inputs": [
        {
          "internalType": "address",
          "name": "receiver",
          "type": "address"
        }
      ],
      "name": "ERC20InvalidReceiver",
      "type": "error"
    },
    {
      "inputs": [
        {
          "internalType": "address",
          "name": "sender",
          "type": "address"
        }
      ],
      "name": "ERC20InvalidSender",
      "type": "error"
    },
    {
      "inputs": [
        {
          "internalType": "address",
          "name": "spender",
          "type": "address"
        }
      ],
      "name": "ERC20InvalidSpender",
      "type": "error"
    },
    {
      "inputs": [],
      "name": "InvalidInitialization",
      "type": "error"
    },
    {
      "inputs": [],
      "name": "NotInitializing",
      "type": "error"
    },
    {
      "inputs": [
        {
          "internalType": "address",
          "name": "owner",
          "type": "address"
        }
      ],
      "name": "OwnableInvalidOwner",
      "type": "error"
    },
    {
      "inputs": [
        {
          "internalType": "address",
          "name": "account",
          "type": "address"
        }
      ],
      "name": "OwnableUnauthorizedAccount",
      "type": "error"
    },
    {
      "inputs": [],
      "name": "R",
      "type": "error"
    },
    {
      "inputs": [],
      "name": "T",
      "type": "error"
    },
    {
      "anonymous": false,
      "inputs": [
        {
          "indexed": true,
          "internalType": "address",
          "name": "owner",
          "type": "address"
        },
        {
          "indexed": true,
          "internalType": "address",
          "name": "spender",
          "type": "address"
        },
        {
          "indexed": false,
          "internalType": "uint256",
          "name": "value",
          "type": "uint256"
        }
      ],
      "name": "Approval",
      "type": "event"
    },
    {
      "anonymous": false,
      "inputs": [
        {
          "indexed": false,
          "internalType": "uint64",
          "name": "version",
          "type": "uint64"
        }
      ],
      "name": "Initialized",
      "type": "event"
    },
    {
      "anonymous": false,
      "inputs": [
        {
          "indexed": true,
          "internalType": "address",
          "name": "previousOwner",
          "type": "address"
        },
        {
          "indexed": true,
          "internalType": "address",
          "name": "newOwner",
          "type": "address"
        }
      ],
      "name": "OwnershipTransferred",
      "type": "event"
    },
    {
      "anonymous": false,
      "inputs": [
        {
          "indexed": true,
          "internalType": "address",
          "name": "from",
          "type": "address"
        },
        {
          "indexed": true,
          "internalType": "address",
          "name": "to",
          "type": "address"
        },
        {
          "indexed": false,
          "internalType": "uint256",
          "name": "value",
          "type": "uint256"
        }
      ],
      "name": "Transfer",
      "type": "event"
    },
    {
      "inputs": [
        {
          "internalType": "address",
          "name": "owner",
          "type": "address"
        },
        {
          "internalType": "address",
          "name": "spender",
          "type": "address"
        }
      ],
      "name": "allowance",
      "outputs": [
        {
          "internalType": "uint256",
          "name": "",
          "type": "uint256"
        }
      ],
      "stateMutability": "view",
      "type": "function"
    },
    {
      "inputs": [
        {
          "internalType": "address",
          "name": "spender",
          "type": "address"
        },
        {
          "internalType": "uint256",
          "name": "value",
          "type": "uint256"
        }
      ],
      "name": "approve",
      "outputs": [
        {
          "internalType": "bool",
          "name": "",
          "type": "bool"
        }
      ],
      "stateMutability": "nonpayable",
      "type": "function"
    },
    {
      "inputs": [
        {
          "internalType": "address",
          "name": "account",
          "type": "address"
        }
      ],
      "name": "balanceOf",
      "outputs": [
        {
          "internalType": "uint256",
          "name": "",
          "type": "uint256"
        }
      ],
      "stateMutability": "view",
      "type": "function"
    },
    {
      "inputs": [
        {
          "internalType": "uint256",
          "name": "token0Amount",
          "type": "uint256"
        },
        {
          "internalType": "uint256",
          "name": "token1Amount",
          "type": "uint256"
        },
        {
          "internalType": "uint256",
          "name": "minGandalfTokenAmount",
          "type": "uint256"
        },
        {
          "internalType": "uint256",
          "name": "deadline",
          "type": "uint256"
        }
      ],
      "name": "buyGandalfToken",
      "outputs": [],
      "stateMutability": "nonpayable",
      "type": "function"
    },
    {
      "inputs": [],
      "name": "decimals",
      "outputs": [
        {
          "internalType": "uint8",
          "name": "",
          "type": "uint8"
        }
      ],
      "stateMutability": "view",
      "type": "function"
    },
    {
      "inputs": [],
      "name": "getActualTickLower",
      "outputs": [
        {
          "internalType": "int24",
          "name": "actualTickLower",
          "type": "int24"
        }
      ],
      "stateMutability": "view",
      "type": "function"
    },
    {
      "inputs": [],
      "name": "getActualTickUpper",
      "outputs": [
        {
          "internalType": "int24",
          "name": "actualTickUpper",
          "type": "int24"
        }
      ],
      "stateMutability": "view",
      "type": "function"
    },
    {
      "inputs": [
        {
          "internalType": "address",
          "name": "tokenIn",
          "type": "address"
        },
        {
          "internalType": "address",
          "name": "tokenOut",
          "type": "address"
        },
        {
          "internalType": "uint256",
          "name": "amountIn",
          "type": "uint256"
        }
      ],
      "name": "getAmountOutMinimum",
      "outputs": [
        {
          "internalType": "uint256",
          "name": "amountOutMinimum",
          "type": "uint256"
        }
      ],
      "stateMutability": "view",
      "type": "function"
    },
    {
      "inputs": [],
      "name": "getCurrentPriceTick",
      "outputs": [
        {
          "internalType": "int24",
          "name": "",
          "type": "int24"
        }
      ],
      "stateMutability": "view",
      "type": "function"
    },
    {
      "inputs": [],
      "name": "getCurrentPriceTickRounded",
      "outputs": [
        {
          "internalType": "int24",
          "name": "",
          "type": "int24"
        }
      ],
      "stateMutability": "view",
      "type": "function"
    },
    {
      "inputs": [],
      "name": "getDesiredReserveAmounts",
      "outputs": [
        {
          "internalType": "uint256",
          "name": "token0Amount",
          "type": "uint256"
        },
        {
          "internalType": "uint256",
          "name": "token1Amount",
          "type": "uint256"
        }
      ],
      "stateMutability": "view",
      "type": "function"
    },
    {
      "inputs": [],
      "name": "getDesiredTickLower",
      "outputs": [
        {
          "internalType": "int24",
          "name": "",
          "type": "int24"
        }
      ],
      "stateMutability": "view",
      "type": "function"
    },
    {
      "inputs": [],
      "name": "getDesiredTickRange",
      "outputs": [
        {
          "internalType": "uint24",
          "name": "",
          "type": "uint24"
        }
      ],
      "stateMutability": "view",
      "type": "function"
    },
    {
      "inputs": [],
      "name": "getDesiredTickUpper",
      "outputs": [
        {
          "internalType": "int24",
          "name": "",
          "type": "int24"
        }
      ],
      "stateMutability": "view",
      "type": "function"
    },
    {
      "inputs": [
        {
          "internalType": "address",
          "name": "tokenIn",
          "type": "address"
        },
        {
          "internalType": "address",
          "name": "tokenOut",
          "type": "address"
        },
        {
          "internalType": "uint256",
          "name": "amountIn",
          "type": "uint256"
        },
        {
          "internalType": "uint24",
          "name": "fee",
          "type": "uint24"
        }
      ],
      "name": "getEstimatedTokenOut",
      "outputs": [
        {
          "internalType": "uint256",
          "name": "amountOut",
          "type": "uint256"
        }
      ],
      "stateMutability": "view",
      "type": "function"
    },
    {
      "inputs": [],
      "name": "getFeeDenominator",
      "outputs": [
        {
          "internalType": "uint24",
          "name": "",
          "type": "uint24"
        }
      ],
      "stateMutability": "pure",
      "type": "function"
    },
    {
      "inputs": [],
      "name": "getGandalfPoolFeeNumerator",
      "outputs": [
        {
          "internalType": "uint24",
          "name": "",
          "type": "uint24"
        }
      ],
      "stateMutability": "view",
      "type": "function"
    },
    {
      "inputs": [],
      "name": "getGandalfTokenPriceInToken0",
      "outputs": [
        {
          "internalType": "uint256",
          "name": "",
          "type": "uint256"
        }
      ],
      "stateMutability": "view",
      "type": "function"
    },
    {
      "inputs": [],
      "name": "getGandalfTokenPriceInToken1",
      "outputs": [
        {
          "internalType": "uint256",
          "name": "",
          "type": "uint256"
        }
      ],
      "stateMutability": "view",
      "type": "function"
    },
    {
      "inputs": [],
      "name": "getIfLiquidityPositionNeedsUpdate",
      "outputs": [
        {
          "internalType": "bool",
          "name": "",
          "type": "bool"
        }
      ],
      "stateMutability": "view",
      "type": "function"
    },
    {
      "inputs": [
        {
          "internalType": "uint24",
          "name": "tickRange",
          "type": "uint24"
        }
      ],
      "name": "getIsTickRangeValid",
      "outputs": [
        {
          "internalType": "bool",
          "name": "",
          "type": "bool"
        }
      ],
      "stateMutability": "view",
      "type": "function"
    },
    {
      "inputs": [],
      "name": "getLiquidityPositionLiquidityAmount",
      "outputs": [
        {
          "internalType": "uint128",
          "name": "liquidityAmount",
          "type": "uint128"
        }
      ],
      "stateMutability": "view",
      "type": "function"
    },
    {
      "inputs": [],
      "name": "getLiquidityPositionTokenId",
      "outputs": [
        {
          "internalType": "uint256",
          "name": "",
          "type": "uint256"
        }
      ],
      "stateMutability": "view",
      "type": "function"
    },
    {
      "inputs": [],
      "name": "getLiquidityPositionValueInToken0",
      "outputs": [
        {
          "internalType": "uint256",
          "name": "",
          "type": "uint256"
        }
      ],
      "stateMutability": "view",
      "type": "function"
    },
    {
      "inputs": [],
      "name": "getNewDesiredTicks",
      "outputs": [
        {
          "internalType": "int24",
          "name": "newDesiredTickLower",
          "type": "int24"
        },
        {
          "internalType": "int24",
          "name": "newDesiredTickUpper",
          "type": "int24"
        }
      ],
      "stateMutability": "view",
      "type": "function"
    },
    {
      "inputs": [],
      "name": "getPriceInActualLiquidityRange",
      "outputs": [
        {
          "internalType": "bool",
          "name": "priceInLiquidityRange",
          "type": "bool"
        }
      ],
      "stateMutability": "view",
      "type": "function"
    },
    {
      "inputs": [],
      "name": "getPriceInDesiredLiquidityRange",
      "outputs": [
        {
          "internalType": "bool",
          "name": "priceInLiquidityRange",
          "type": "bool"
        }
      ],
      "stateMutability": "view",
      "type": "function"
    },
    {
      "inputs": [],
      "name": "getReserveValueInToken0",
      "outputs": [
        {
          "internalType": "uint256",
          "name": "",
          "type": "uint256"
        }
      ],
      "stateMutability": "view",
      "type": "function"
    },
    {
      "inputs": [],
      "name": "getSlippageDenominator",
      "outputs": [
        {
          "internalType": "uint24",
          "name": "",
          "type": "uint24"
        }
      ],
      "stateMutability": "pure",
      "type": "function"
    },
    {
      "inputs": [],
      "name": "getSqrtPriceX96",
      "outputs": [
        {
          "internalType": "uint160",
          "name": "sqrtPriceX96",
          "type": "uint160"
        }
      ],
      "stateMutability": "view",
      "type": "function"
    },
    {
      "inputs": [],
      "name": "getTickSpacing",
      "outputs": [
        {
          "internalType": "int24",
          "name": "",
          "type": "int24"
        }
      ],
      "stateMutability": "view",
      "type": "function"
    },
    {
      "inputs": [],
      "name": "getToken0",
      "outputs": [
        {
          "internalType": "address",
          "name": "",
          "type": "address"
        }
      ],
      "stateMutability": "view",
      "type": "function"
    },
    {
      "inputs": [],
      "name": "getToken1",
      "outputs": [
        {
          "internalType": "address",
          "name": "",
          "type": "address"
        }
      ],
      "stateMutability": "view",
      "type": "function"
    },
    {
      "inputs": [
        {
          "internalType": "uint256",
          "name": "gandalfTokenAmountSold",
          "type": "uint256"
        },
        {
          "internalType": "bool",
          "name": "receiveInToken0",
          "type": "bool"
        }
      ],
      "name": "getTokenAmountToReceiveFromSell",
      "outputs": [
        {
          "internalType": "uint256",
          "name": "maxTokenAmountToReceive",
          "type": "uint256"
        }
      ],
      "stateMutability": "view",
      "type": "function"
    },
    {
      "inputs": [
        {
          "internalType": "address",
          "name": "tokenA",
          "type": "address"
        },
        {
          "internalType": "address",
          "name": "tokenB",
          "type": "address"
        }
      ],
      "name": "getTokensSorted",
      "outputs": [
        {
          "internalType": "address",
          "name": "token0_",
          "type": "address"
        },
        {
          "internalType": "address",
          "name": "token1_",
          "type": "address"
        }
      ],
      "stateMutability": "pure",
      "type": "function"
    },
    {
      "inputs": [],
      "name": "getTotalValueInToken0",
      "outputs": [
        {
          "internalType": "uint256",
          "name": "",
          "type": "uint256"
        }
      ],
      "stateMutability": "view",
      "type": "function"
    },
    {
      "inputs": [],
      "name": "getTotalValueInToken1",
      "outputs": [
        {
          "internalType": "uint256",
          "name": "",
          "type": "uint256"
        }
      ],
      "stateMutability": "view",
      "type": "function"
    },
    {
      "inputs": [],
      "name": "getUniswapV3FactoryAddress",
      "outputs": [
        {
          "internalType": "address",
          "name": "",
          "type": "address"
        }
      ],
      "stateMutability": "view",
      "type": "function"
    },
    {
      "inputs": [],
      "name": "getUniswapV3PoolAddress",
      "outputs": [
        {
          "internalType": "address",
          "name": "",
          "type": "address"
        }
      ],
      "stateMutability": "view",
      "type": "function"
    },
    {
      "inputs": [],
      "name": "getUniswapV3PoolFee",
      "outputs": [
        {
          "internalType": "uint24",
          "name": "",
          "type": "uint24"
        }
      ],
      "stateMutability": "view",
      "type": "function"
    },
    {
      "inputs": [],
      "name": "getUniswapV3PoolSlippageNumerator",
      "outputs": [
        {
          "internalType": "uint24",
          "name": "",
          "type": "uint24"
        }
      ],
      "stateMutability": "view",
      "type": "function"
    },
    {
      "inputs": [],
      "name": "getUniswapV3PositionManagerAddress",
      "outputs": [
        {
          "internalType": "address",
          "name": "",
          "type": "address"
        }
      ],
      "stateMutability": "view",
      "type": "function"
    },
    {
      "inputs": [],
      "name": "getUniswapV3SwapRouterAddress",
      "outputs": [
        {
          "internalType": "address",
          "name": "",
          "type": "address"
        }
      ],
      "stateMutability": "view",
      "type": "function"
    },
    {
      "inputs": [
        {
          "internalType": "address",
          "name": "owner_",
          "type": "address"
        },
        {
          "internalType": "string",
          "name": "name_",
          "type": "string"
        },
        {
          "internalType": "string",
          "name": "symbol_",
          "type": "string"
        },
        {
          "internalType": "address",
          "name": "uniswapV3FactoryAddress_",
          "type": "address"
        },
        {
          "internalType": "address",
          "name": "uniswapV3SwapRouterAddress_",
          "type": "address"
        },
        {
          "internalType": "address",
          "name": "uniswapV3PositionManagerAddress_",
          "type": "address"
        },
        {
          "internalType": "address",
          "name": "tokenA_",
          "type": "address"
        },
        {
          "internalType": "address",
          "name": "tokenB_",
          "type": "address"
        },
        {
          "internalType": "uint24",
          "name": "uniswapV3PoolSlippageNumerator_",
          "type": "uint24"
        },
        {
          "internalType": "uint24",
          "name": "uniswapV3PoolFee_",
          "type": "uint24"
        },
        {
          "internalType": "uint24",
          "name": "desiredTickRange_",
          "type": "uint24"
        },
        {
          "internalType": "uint24",
          "name": "gandalfPoolFeeNumerator_",
          "type": "uint24"
        }
      ],
      "name": "initialize",
      "outputs": [],
      "stateMutability": "nonpayable",
      "type": "function"
    },
    {
      "inputs": [],
      "name": "name",
      "outputs": [
        {
          "internalType": "string",
          "name": "",
          "type": "string"
        }
      ],
      "stateMutability": "view",
      "type": "function"
    },
    {
      "inputs": [],
      "name": "owner",
      "outputs": [
        {
          "internalType": "address",
          "name": "",
          "type": "address"
        }
      ],
      "stateMutability": "view",
      "type": "function"
    },
    {
      "inputs": [],
      "name": "rebalance",
      "outputs": [],
      "stateMutability": "nonpayable",
      "type": "function"
    },
    {
      "inputs": [],
      "name": "renounceOwnership",
      "outputs": [],
      "stateMutability": "nonpayable",
      "type": "function"
    },
    {
      "inputs": [
        {
          "internalType": "uint256",
          "name": "gandalfTokenAmount",
          "type": "uint256"
        },
        {
          "internalType": "uint256",
          "name": "minTokenAmountToReceive",
          "type": "uint256"
        },
        {
          "internalType": "bool",
          "name": "receiveInToken0",
          "type": "bool"
        },
        {
          "internalType": "uint256",
          "name": "deadline",
          "type": "uint256"
        }
      ],
      "name": "sellGandalfToken",
      "outputs": [],
      "stateMutability": "nonpayable",
      "type": "function"
    },
    {
      "inputs": [
        {
          "internalType": "uint24",
          "name": "desiredTickRange_",
          "type": "uint24"
        }
      ],
      "name": "setDesiredTickRange",
      "outputs": [],
      "stateMutability": "nonpayable",
      "type": "function"
    },
    {
      "inputs": [
        {
          "internalType": "uint24",
          "name": "gandalfPoolFeeNumerator_",
          "type": "uint24"
        }
      ],
      "name": "setGandalfPoolFeeNumerator",
      "outputs": [],
      "stateMutability": "nonpayable",
      "type": "function"
    },
    {
      "inputs": [
        {
          "internalType": "uint24",
          "name": "uniswapV3PoolSlippageNumerator_",
          "type": "uint24"
        }
      ],
      "name": "setUniswapV3PoolSlippageNumerator",
      "outputs": [],
      "stateMutability": "nonpayable",
      "type": "function"
    },
    {
      "inputs": [],
      "name": "symbol",
      "outputs": [
        {
          "internalType": "string",
          "name": "",
          "type": "string"
        }
      ],
      "stateMutability": "view",
      "type": "function"
    },
    {
      "inputs": [],
      "name": "totalSupply",
      "outputs": [
        {
          "internalType": "uint256",
          "name": "",
          "type": "uint256"
        }
      ],
      "stateMutability": "view",
      "type": "function"
    },
    {
      "inputs": [
        {
          "internalType": "address",
          "name": "to",
          "type": "address"
        },
        {
          "internalType": "uint256",
          "name": "value",
          "type": "uint256"
        }
      ],
      "name": "transfer",
      "outputs": [
        {
          "internalType": "bool",
          "name": "",
          "type": "bool"
        }
      ],
      "stateMutability": "nonpayable",
      "type": "function"
    },
    {
      "inputs": [
        {
          "internalType": "address",
          "name": "from",
          "type": "address"
        },
        {
          "internalType": "address",
          "name": "to",
          "type": "address"
        },
        {
          "internalType": "uint256",
          "name": "value",
          "type": "uint256"
        }
      ],
      "name": "transferFrom",
      "outputs": [
        {
          "internalType": "bool",
          "name": "",
          "type": "bool"
        }
      ],
      "stateMutability": "nonpayable",
      "type": "function"
    },
    {
      "inputs": [
        {
          "internalType": "address",
          "name": "newOwner",
          "type": "address"
        }
      ],
      "name": "transferOwnership",
      "outputs": [],
      "stateMutability": "nonpayable",
      "type": "function"
    }
  ],
  "transactionHash": "0xb480261a3f3cea84711b75b1eb3c5bd7e540d17034eba6033419ffd1f587ffd9",
  "args": [],
  "numDeployments": 1,
  "solcInputHash": "f5fc3f9f0ccb637c90cd40a3c2a53810",
  "bytecode": "0x608080604052346100165761425f908161001c8239f35b600080fdfe6080604052600436101561001257600080fd5b60003560e01c8062862a4314611c0357806302ba214214611bda57806302f52f7f14611bb657806306fdde0314611b12578063071ab48914611af7578063095ea7b314611a765780630b93fb8614611a4f57806318160ddd14611a245780631a534b79146119e45780631c418996146119b05780631da022d6146110a857806323b872dd14610fd957806323bc093814610fbe5780632ce2dcf914610daa578063313ce56714610d8e5780633999d1f214610d655780633c1b890614610d3f5780634305037f14610d24578063435254d214610d0057806348a223d714610cd35780635245da5614610c8f5780635282e18c14610907578063591ad7c5146108e25780635e774c2f146108b957806361ad110514610896578063630fea1c1461087b57806363f676c814610808578063685c26d8146107dc5780636e829d35146107c15780636f26a7101461079857806370a0823114610751578063715018a6146106e757806371aff2a9146106cc5780637a39dec0146106a65780637d7c2a1c1461068d5780637db3fd69146106725780638a1b2b7b146106495780638da5cb5b1461061357806395d89b41146105315780639b2cf69b14610506578063a9059cbb146104d5578063afe17b00146104ba578063b1f8f13b1461048d578063b213ffbb14610464578063ba94a3151461043b578063bbb37017146102e7578063c1b70b751461040d578063c2f6d34a146103e4578063c59ca7e5146103be578063c6d2c20e14610392578063ccbfc16c14610379578063dd62ed3e14610330578063e53f2d1714610315578063f2fde38b146102ec578063f4e1fc41146102e7578063fc518bff146102be5763fce36a4b1461028e57600080fd5b346102b95760203660031901126102b9576102b76102aa611c26565b6102b26129a1565b612fee565b005b600080fd5b346102b95760003660031901126102b95760206001546102df811515612362565b604051908152f35b611d59565b346102b95760203660031901126102b9576102b7610308611c81565b6103106129a1565b61292d565b346102b95760003660031901126102b95760206102df6128dd565b346102b95760403660031901126102b957610349611c81565b61035a610354611c97565b91612594565b9060018060a01b03166000526020526020604060002054604051908152f35b346102b95760206102df61038c36611d24565b916128b0565b346102b95760003660031901126102b95760206102df6103b06126fa565b6103b86128dd565b9061217c565b346102b95760003660031901126102b957602062ffffff60005460181c16604051908152f35b346102b95760003660031901126102b9576003546040516001600160a01b039091168152602090f35b346102b95760003660031901126102b957602061043061042b6127e9565b613af9565b6040519060020b8152f35b346102b95760003660031901126102b9576006546040516001600160a01b039091168152602090f35b346102b95760003660031901126102b9576002546040516001600160a01b039091168152602090f35b346102b95760003660031901126102b95760206104a86127e9565b6040516001600160a01b039091168152f35b346102b95760003660031901126102b95760206102df6126fa565b346102b95760403660031901126102b9576104fb6104f1611c81565b602435903361322a565b602060405160018152f35b346102b95760403660031901126102b95760243580151581036102b9576102df6020916004356126b8565b346102b95760003660031901126102b957604051600060008051602061418a83398151915280549061056282611e7e565b808552916020916001918281169081156105e6575060011461059f575b61059b8661058f81880382611cad565b60405191829182611c38565b0390f35b600090815293506000805160206141ea8339815191525b8385106105d35750505050810160200161058f8261059b8561057f565b80548686018401529382019381016105b6565b905086955061059b9693506020925061058f94915060ff191682840152151560051b82010192938561057f565b346102b95760003660031901126102b9576000805160206141aa833981519152546040516001600160a01b039091168152602090f35b346102b95760203660031901126102b9576102b7610665611c26565b61066d6129a1565b6130f8565b346102b95760003660031901126102b9576020610430612643565b346102b95760003660031901126102b9576102b761340c565b346102b95760003660031901126102b957602062ffffff60005460301c16604051908152f35b346102b95760003660031901126102b95760206104306125cd565b346102b95760003660031901126102b9576107006129a1565b6000805160206141aa83398151915280546001600160a01b031981169091556000906001600160a01b03167f8be0079c531659141344cd1fd0a4f28419497f9722a3daafe3b4186f6b6457e08280a3005b346102b95760203660031901126102b9576001600160a01b03610772611c81565b1660005260008051602061416a8339815191526020526020604060002054604051908152f35b346102b95760003660031901126102b9576007546040516001600160a01b039091168152602090f35b346102b95760003660031901126102b95760206102df61256c565b346102b95760003660031901126102b95760206107f76124f5565b6001600160801b0360405191168152f35b346102b95760003660031901126102b9576000805160206141ca833981519152546108348115156120a2565b61083f6103b06126fa565b670de0b6b3a764000090818102918183041490151715610865576020916102df91611fe5565b634e487b7160e01b600052601160045260246000fd5b346102b95760003660031901126102b95760206104306123ae565b346102b95760003660031901126102b957602062ffffff60005416604051908152f35b346102b95760003660031901126102b9576004546040516001600160a01b039091168152602090f35b346102b95760003660031901126102b95760206108fd612322565b6040519015158152f35b346102b95760803660031901126102b957604435600435602482151583036102b957610937426064351015612189565b61094183836126b8565b906001600160801b0393610983610961858761095b6124f5565b16611fd2565b9561097d6000805160206141ca83398151915297885490611fe5565b16613dbe565b61098b613e8f565b15610c75576007546006546001600160a01b03918216939116905b6040516370a0823160e01b80825230600483015260209590936001600160a01b03929091878288818488165afa908115610b5e578390600092610c42575b6109ee9350613f1e565b169160405181815230600482015285818681875afa908115610b5e57600091610c15575b508211610bb9575b50610a3e620f42409162ffffff610a378160005460181c16611fa4565b1690611fd2565b0482358110610b6a5760009160448592604051948593849263a9059cbb60e01b8452336004850152888401525af18015610b5e57610b2a575b503315610b1457503360005260008051602061416a8339815191529283825260406000205493838510610aee5790836000957fddf252ad1be2c89b69c2b068fc378daa952ba7f163c4a11628f55a4df523b3ef949333885284520360408620558381540390556040519283523392a36102b761340c565b60405163391434e360e21b81523360048201526024810186905260448101859052606490fd5b604051634b637e8f60e11b815260006004820152fd5b8281813d8311610b57575b610b3f8183611cad565b810103126102b957610b509061211e565b5084610a77565b503d610b35565b6040513d6000823e3d90fd5b60405162461bcd60e51b8152600481018590526022818501527f4d696e696d756d20746f6b656e20616d6f756e742063616e6e6f74206265206d604482015261195d60f21b6064820152608490fd5b905060405190815230600482015283818481855afa908115610b5e57600091610be6575b50610a3e610a1a565b90508381813d8311610c0e575b610bfd8183611cad565b810103126102b95751610a3e610bdd565b503d610bf3565b90508581813d8311610c3b575b610c2c8183611cad565b810103126102b9575188610a12565b503d610c22565b9150508782813d8311610c6e575b610c5a8183611cad565b810103126102b957826109ee9251916109e4565b503d610c50565b6006546007546001600160a01b03918216939116906109a6565b346102b95760403660031901126102b9576040610cbb610cad611c81565b610cb5611c97565b9061230b565b82516001600160a01b03928316815291166020820152f35b346102b95760003660031901126102b9576040610cee61222c565b82519160020b825260020b6020820152f35b346102b95760003660031901126102b957602060005460601c60020b604051908152f35b346102b95760003660031901126102b95760206108fd6121e2565b346102b95760003660031901126102b957602062ffffff60005460481c16604051908152f35b346102b95760003660031901126102b9576005546040516001600160a01b039091168152602090f35b346102b95760003660031901126102b957602060405160128152f35b346102b95760803660031901126102b957600435602435610dcb818361217c565b15610f6257610dde426064351015612189565b610de96103b06126fa565b15610f4957620f424091610e0b610e5492610e056103b06126fa565b926132ff565b610e4f610e3b610e2583610e206103b06126fa565b6121d5565b6000805160206141ca8339815191525490611fd2565b62ffffff610a378160005460181c16611fa4565b611fe5565b045b6044358110610ef1573315610ed8576000805160206141ca833981519152610e7f82825461217c565b90553360005260008051602061416a833981519152602052604060002081815401905560405190815260007fddf252ad1be2c89b69c2b068fc378daa952ba7f163c4a11628f55a4df523b3ef60203393a36102b761340c565b60405163ec442f0560e01b815260006004820152602490fd5b60405162461bcd60e51b815260206004820152602a60248201527f4d696e696d756d2067616e64616c6620746f6b656e20616d6f756e742063616e6044820152691b9bdd081899481b595d60b21b6064820152608490fd5b610f52916132ff565b69d3c21bcecceda1000000610e56565b60405162461bcd60e51b815260206004820152602e60248201527f53756d206f6620746f6b656e20616d6f756e7473206d7573742062652067726560448201526d61746572207468616e207a65726f60901b6064820152608490fd5b346102b95760003660031901126102b95760206108fd61212b565b346102b957610fe736611d24565b90610ff183612594565b33600052602052604060002054926000198403611013575b6104fb935061322a565b828410611082576001600160a01b0381161561106957331561105057826104fb9461103d83612594565b3360005260205203604060002055611009565b604051634a1406b160e11b815260006004820152602490fd5b60405163e602df0560e01b815260006004820152602490fd5b604051637dc7a0d960e11b81523360048201526024810185905260448101849052606490fd5b346102b9576101803660031901126102b9576110c2611c81565b6024356001600160401b0381116102b9576110e1903690600401611cce565b6044356001600160401b0381116102b957611100903690600401611cce565b6064356001600160a01b03811681036102b957608435916001600160a01b03831683036102b95760a435946001600160a01b03861686036102b95760c4356001600160a01b03811690036102b95760e4356001600160a01b03811690036102b95762ffffff9081610104351661010435036102b957610124359282841684036102b95782610144351661014435036102b95782610164351661016435036102b95760008051602061420a83398151915254966001600160401b03881615806119a2575b60016001600160401b038a16149081611998575b15908161198f575b5061197d5760016001600160401b031989161760008051602061420a8339815191525560ff8860401c1615611950575b6112176140fa565b61121f6140fa565b6112288361292d565b6112306140fa565b6112386140fa565b8051906001600160401b03821161181c57819061126360008051602061414a83398151915254611e7e565b601f81116118cf575b50602090601f831160011461183d57600092611832575b50508160011b916000199060031b1c19161760008051602061414a833981519152555b8051906001600160401b03821161181c576112cf60008051602061418a83398151915254611e7e565b601f81116117a6575b50602090601f83116001146117125761132093929160009183611707575b50508160011b916000199060031b1c19161760008051602061418a833981519152556103106129a1565b6000805462ffffff1916929091169182179055604051630b4c774160e11b815260c4356001600160a01b03908116600483015260e435811660248301526044820192909252906020908290606490829086165afa908115610b5e576000916116cd575b50600580546001600160a01b0319166001600160a01b039290921691821790551561169257600280546001600160a01b03199081166001600160a01b0393841617909155600380548216848416179055600480549091169185169190911790556113ef61016435612fee565b6113fb610104356130f8565b611407610144356129da565b61141560e43560c43561230b565b600780546001600160a01b03199081166001600160a01b039384161790915560068054909116928216928317905560405163095ea7b360e01b8082529184166004820152600019602482018190529591939192602090829060449082906000905af18015610b5e57611659575b506006546040518481526001600160a01b03848116600483015260248201889052909160209183916044918391600091165af18015610b5e5761161a575b506007546040518481526001600160a01b039283166004820152602481018790529160209183916044918391600091165af18015610b5e576115db575b506044602092600060018060a01b03600754166040519788958694855260018060a01b0316600485015260248401525af18015610b5e576115a1575b60ff915060401c161561154857005b68ff00000000000000001960008051602061420a833981519152541660008051602061420a833981519152557fc7f505b2f371ae2175ee4913f4499e1f2633a7b5936321eed1cdaeb6115181d2602060405160018152a1005b6020823d6020116115d3575b816115ba60209383611cad565b810103126102b9576115cd60ff9261211e565b50611539565b3d91506115ad565b6020813d602011611612575b816115f460209383611cad565b810103126102b95760209261160a60449261211e565b5092506114fd565b3d91506115e7565b6020813d602011611651575b8161163360209383611cad565b810103126102b95760009161164960209261211e565b5091506114c0565b3d9150611626565b6020813d60201161168a575b8161167260209383611cad565b810103126102b9576116839061211e565b5085611482565b3d9150611665565b60405162461bcd60e51b8152602060048201526013602482015272141bdbdb08191bd95cc81b9bdd08195e1a5cdd606a1b6044820152606490fd5b90506020813d6020116116ff575b816116e860209383611cad565b810103126102b9576116f99061210a565b85611383565b3d91506116db565b015190508a806112f6565b9060008051602061418a8339815191526000526000805160206141ea8339815191529160005b601f198516811061178e57509183916001936113209695601f19811610611775575b505050811b0160008051602061418a83398151915255610308565b015160001960f88460031b161c191690558a808061175a565b91926020600181928685015181550194019201611738565b60008051602061418a833981519152600052601f830160051c6000805160206141ea8339815191520160208410611807575b601f820160051c6000805160206141ea8339815191520181106117fb57506112d8565b600081556001016117d8565b506000805160206141ea8339815191526117d8565b634e487b7160e01b600052604160045260246000fd5b015190508a80611283565b925060008051602061414a83398151915260005260008051602061412a833981519152906000935b601f19841685106118b4576001945083601f1981161061189b575b505050811b0160008051602061414a833981519152556112a6565b015160001960f88460031b161c191690558a8080611880565b81810151835560209485019460019093019290910190611865565b90915060008051602061414a833981519152600052601f830160051c60008051602061412a833981519152016020841061193b575b908392915b601f820160051c60008051602061412a83398151915201811061192c575061126c565b60008155849350600101611909565b5060008051602061412a833981519152611904565b68ffffffffffffffffff198816680100000000000000011760008051602061420a8339815191525561120f565b60405163f92ee8a960e01b8152600490fd5b9050158a6111df565b303b1591506111d7565b5060ff8860401c16156111c3565b346102b95760003660031901126102b9576000805160206141ca833981519152546119dc8115156120a2565b61083f61256c565b346102b95760803660031901126102b9576119fd611c81565b611a05611c97565b60643562ffffff811681036102b9576020926102df9260443591612047565b346102b95760003660031901126102b95760206000805160206141ca83398151915254604051908152f35b346102b95760003660031901126102b9576040611a6a611f1a565b82519182526020820152f35b346102b95760403660031901126102b957611a8f611c81565b602435903315611069576001600160a01b031690811561105057611ab233612594565b82600052602052806040600020556040519081527f8c5be1e5ebec7d5bd14f71427d1e84f3dd0314c0f7b2291e5b200ac8c7c3b92560203392a3602060405160018152f35b346102b95760003660031901126102b9576020610430611ed5565b346102b95760003660031901126102b957604051600060008051602061414a833981519152805490611b4382611e7e565b808552916020916001918281169081156105e65750600114611b6f5761059b8661058f81880382611cad565b6000908152935060008051602061412a8339815191525b838510611ba35750505050810160200161058f8261059b8561057f565b8054868601840152938201938101611b86565b346102b95760003660031901126102b957602060005460781c60020b604051908152f35b346102b95760203660031901126102b9576102b7611bf6611c26565b611bfe6129a1565b6129da565b346102b95760203660031901126102b95760206108fd611c21611c26565b611d85565b6004359062ffffff821682036102b957565b6020808252825181830181905290939260005b828110611c6d57505060409293506000838284010152601f8019910116010190565b818101860151848201604001528501611c4b565b600435906001600160a01b03821682036102b957565b602435906001600160a01b03821682036102b957565b90601f801991011681019081106001600160401b0382111761181c57604052565b81601f820112156102b9578035906001600160401b03821161181c5760405192611d02601f8401601f191660200185611cad565b828452602083830101116102b957816000926020809301838601378301015290565b60609060031901126102b9576001600160a01b039060043582811681036102b9579160243590811681036102b9579060443590565b346102b95760003660031901126102b9576020604051620f42408152f35b51908160020b82036102b957565b60018060a01b03600254169062ffffff6000916020828454166024604051809781936322afcccb60e01b835260048301525afa938415611e73578394611e32575b508116908084168015611e1e57820616159283611de4575b50505090565b9091925060011b916301fffffe62fffffe841693168303611e0a57501015388080611dde565b634e487b7160e01b81526011600452602490fd5b634e487b7160e01b84526012600452602484fd5b9093506020813d602011611e6b575b81611e4e60209383611cad565b81010312611e6757611e608291611d77565b9390611dc6565b8280fd5b3d9150611e41565b6040513d85823e3d90fd5b90600182811c92168015611eae575b6020831014611e9857565b634e487b7160e01b600052602260045260246000fd5b91607f1691611e8d565b600291820b910b0390627fffff198212627fffff83131761086557565b611ee061042b6127e9565b611ee8612643565b60020b908115611f0457611f01918160020b0790611eb8565b90565b634e487b7160e01b600052601260045260246000fd5b600054611f3b611f2f8260601c60020b612ac2565b9160781c60020b612ac2565b611f73611f466126fa565b826001600160a01b038581831682821611611f9a575b611f6a828416838316612eaa565b92031691612f79565b906001600160801b0382169182036102b957611f9692611f916127e9565b612e33565b9091565b5085915084611f5c565b9062ffffff809216620f42400391821161086557565b90620f42409182810292818404149015171561086557565b8181029291811591840414171561086557565b8115611f04570490565b620f424092906001600160a01b0380806120076127e9565b16941691161015612031578161202361202d9361202893612eaa565b612eaa565b611fba565b0490565b8161204261202d9361202893612eef565b612eef565b620f4240939192906001600160a01b0380806120616127e9565b1695169116101561208a57610a376120848461202361202d9662ffffff95612eaa565b92611fa4565b610a376120848461204261202d9662ffffff95612eef565b156120a957565b60405162461bcd60e51b815260206004820152603360248201527f537570706c79206d7573742062652067726561746572207468616e207a65726f60448201527220746f2063616c63756c61746520707269636560681b6064820152608490fd5b51906001600160a01b03821682036102b957565b519081151582036102b957565b6121336121e2565b15801561215f575b80156121445790565b5060005460781c6121536125cd565b60020b9060020b141590565b5060005460601c61216e6123ae565b60020b9060020b141561213b565b9190820180921161086557565b1561219057565b60405162461bcd60e51b815260206004820152601c60248201527f5472616e73616374696f6e20646561646c696e652065787069726564000000006044820152606490fd5b9190820391821161086557565b6121ed61042b6127e9565b6121f56123ae565b9060020b809160020b13159081612217575b501561221257600190565b600090565b90506122216125cd565b60020b121538612207565b612234611ed5565b90627fffff908160005460491c1660020b61224f8185611eb8565b9360020b01918213627fffff198312176108655781620d89e7198460020b126122c657620d89e89060020b1361228157565b60405162461bcd60e51b815260206004820152601c60248201527f5469636b2075707065722069732061626f7665204d41585f5449434b000000006044820152606490fd5b60405162461bcd60e51b815260206004820152601c60248201527f5469636b206c6f7765722069732062656c6f77204d494e5f5449434b000000006044820152606490fd5b6001600160a01b038281169082161015611f965791565b61232d61042b6127e9565b6000549060020b808260601c60020b13159182612351575b50501561221257600190565b60781c60020b121590503880612345565b1561236957565b60405162461bcd60e51b815260206004820152601c60248201527f4e6f206c697175696469747920706f736974696f6e206d696e746564000000006044820152606490fd5b6001546123bc811515612362565b6004805460405163133f757160e31b815291820192909252610180918290829060249082906001600160a01b03165afa918215610b5e576000926123ff57505090565b61241e9250803d1061242d575b6124168183611cad565b810190612448565b50505050505094505050505090565b503d61240c565b51906001600160801b03821682036102b957565b9190826101809103126102b95781516bffffffffffffffffffffffff811681036102b957916124796020820161210a565b916124866040830161210a565b916124936060820161210a565b91608082015162ffffff811681036102b957916124b260a08201611d77565b916124bf60c08301611d77565b916124cc60e08201612434565b916101008201519161012081015191611f016101606124ee6101408501612434565b9301612434565b6001548015612566576004805460405163133f757160e31b815291820192909252610180918290829060249082906001600160a01b03165afa918215610b5e5760009261254157505090565b6125579250803d1061242d576124168183611cad565b50505050965050505050505090565b50600090565b600654600754611f01916001600160a01b03908116911661258e6103b06126fa565b91611fef565b6001600160a01b031660009081527f52c63247e1f47db19d5ce0460030c497f067ca4cebf71ba98eeadabe20bace016020526040902090565b6001546125db811515612362565b6004805460405163133f757160e31b815291820192909252610180918290829060249082906001600160a01b03165afa918215610b5e5760009261261e57505090565b6126349250803d1061242d576124168183611cad565b50505050509550505050505090565b60018060a01b0360025416602062ffffff600054166024604051809481936322afcccb60e01b835260048301525afa908115610b5e57600091612684575090565b90506020813d6020116126b0575b8161269f60209383611cad565b810103126102b957611f0190611d77565b3d9150612692565b90156126eb576126d5611f01916126d06103b06126fa565b611fd2565b6000805160206141ca8339815191525490611fe5565b6126d5611f01916126d061256c565b6006546040516370a0823160e01b8082523060048301526001600160a01b03928316926020908184602481885afa938415610b5e576000946127ab575b5060075416916040519081523060048201528181602481865afa918215610b5e57600092612779575b5050906103b891611f019462ffffff6000541692612047565b9080939250813d83116127a4575b6127918183611cad565b810103126102b9579051836103b8612760565b503d612787565b9093508181813d83116127d3575b6127c38183611cad565b810103126102b957519238612737565b503d6127b9565b519061ffff821682036102b957565b600554604051633850c7bd60e01b8152906001600160a01b039060e0908390600490829085165afa918215610b5e5760009261282457505090565b909160e0823d60e0116128a8575b8161283f60e09383611cad565b810103126128a557815192831683036128a55761285e60208301611d77565b5061286b604083016127da565b50612878606083016127da565b50612885608083016127da565b5060a082015160ff8116036128a5575060c06128a1910161211e565b5090565b80fd5b3d9150612832565b620f424092610a3761202d936128d36000549462ffffff94859384881692612047565b9360301c16611fa4565b611f016103b86129126128ee6127e9565b600054612903611f2f8260601c60020b612ac2565b9061290c6124f5565b92612e33565b6007546006549293926001600160a01b039081169116611fef565b6001600160a01b03908116908115612988576000805160206141aa83398151915280546001600160a01b031981168417909155167f8be0079c531659141344cd1fd0a4f28419497f9722a3daafe3b4186f6b6457e0600080a3565b604051631e4fbdf760e01b815260006004820152602490fd5b6000805160206141aa833981519152546001600160a01b031633036129c257565b60405163118cdaa760e01b8152336004820152602490fd5b6000549062ffffff808360481c1690821614612a67576129f981611d85565b15612a225762ffffff60481b9060481b169062ffffff60481b191617600055612a20614038565b565b60405162461bcd60e51b815260206004820152601760248201527f5469636b2072616e6765206973206e6f742076616c69640000000000000000006044820152606490fd5b60405162461bcd60e51b815260206004820152602d60248201527f44657369726564205469636b2052616e6765206d75737420626520736574207460448201526c6f2061206e65772076616c756560981b6064820152608490fd5b60020b6000811215612e2d5780600003905b620d89e88211612e1b576001821615612e09576001600160881b036ffffcb933bd6fad37aa2d162d1a5940015b169160028116612ded575b60048116612dd1575b60088116612db5575b60108116612d99575b60208116612d7d575b60408116612d61575b608090818116612d46575b6101008116612d2b575b6102008116612d10575b6104008116612cf5575b6108008116612cda575b6110008116612cbf575b6120008116612ca4575b6140008116612c89575b6180008116612c6e575b620100008116612c53575b620200008116612c39575b620400008116612c1f575b6208000016612c04575b50600012612bf5575b63ffffffff8116612bed576000905b60201c60ff91909116016001600160a01b031690565b600190612bd7565b8015611f045760001904612bc8565b6b048a170391f7dc42444e8fa26000929302901c9190612bbf565b6d2216e584f5fa1ea926041bedfe98909302811c92612bb5565b926e5d6af8dedb81196699c329225ee60402811c92612baa565b926f09aa508b5b7a84e1c677de54f3e99bc902811c92612b9f565b926f31be135f97d08fd981231505542fcfa602811c92612b94565b926f70d869a156d2a1b890bb3df62baf32f702811c92612b8a565b926fa9f746462d870fdf8a65dc1f90e061e502811c92612b80565b926fd097f3bdfd2022b8845ad8f792aa582502811c92612b76565b926fe7159475a2c29b7443b29c7fa6e889d902811c92612b6c565b926ff3392b0822b70005940c7a398e4b70f302811c92612b62565b926ff987a7253ac413176f2b074cf7815e5402811c92612b58565b926ffcbe86c7900a88aedcffc83b479aa3a402811c92612b4e565b926ffe5dee046a99a2a811c461f1969c305302811c92612b44565b916fff2ea16466c96a3843ec78b326b528610260801c91612b39565b916fff973b41fa98c081472e6896dfb254c00260801c91612b30565b916fffcb9843d60f6159c9db58835c9266440260801c91612b27565b916fffe5caca7e10e4e61c3624eaa0941cd00260801c91612b1e565b916ffff2e50f5f656932ef12357cf3c7fdcc0260801c91612b15565b916ffff97272373d413259a46990580e213a0260801c91612b0c565b6001600160881b03600160801b612b01565b6040516315e4079d60e11b8152600490fd5b80612ad4565b9093926000929091836001600160a01b0380841681891611612ea2575b828116908881168211612e6f5750505050612e6c9293946140a3565b91565b909192949550831611600014612e96575090612e9083611f019493836140a3565b94614071565b94611f01939250614071565b969296612e50565b6000198282099082810292838084109303928084039314612ee657600160601b91838311156102b9570990828211900360a01b910360601c1790565b50505060601c90565b90600160601b90600019828409928060601b92838086109503948086039514612f6b57848311156102b95782910981806000031680920460028082600302188083028203028083028203028083028203028083028203028083028203028092029003029360018380600003040190848311900302920304170290565b5050809250156102b9570490565b916000198284099282810292838086109503948086039514612f6b57848311156102b95782910981806000031680920460028082600302188083028203028083028203028083028203028083028203028083028203028092029003029360018380600003040190848311900302920304170290565b6000549062ffffff808216908360181c16811461309557620f42401061302a5765ffffff0000009060181b169065ffffff000000191617600055565b60405162461bcd60e51b815260206004820152603c60248201527f47616e64616c6620506f6f6c20466565204e756d657261746f72206d7573742060448201527f6265206c657373207468616e204645455f44454e4f4d494e41544f52000000006064820152608490fd5b60405162461bcd60e51b815260206004820152603560248201527f47616e64616c6620506f6f6c20466565204e756d657261746f72206d7573742060448201527462652073657420746f2061206e65772076616c756560581b6064820152608490fd5b6000549062ffffff808216908360301c1681146131bf57620f42401061313a5768ffffff0000000000009060301b169068ffffff000000000000191617600055565b60405162461bcd60e51b815260206004820152605160248201527f756e69737761705633506f6f6c536c6970706167654e756d657261746f72206d60448201527f757374206265206c657373207468616e206f7220657175616c20746f20534c49606482015270282820a3a2afa222a727a6a4a720aa27a960791b608482015260a490fd5b60405162461bcd60e51b815260206004820152603d60248201527f556e697377617020763320506f6f6c20536c697070616765204e756d6572617460448201527f6f72206d7573742062652073657420746f2061206e65772076616c75650000006064820152608490fd5b916001600160a01b038084169283156132e65716928315610ed85760009083825260008051602061416a833981519152806020526040832054918483106132b3575082847fddf252ad1be2c89b69c2b068fc378daa952ba7f163c4a11628f55a4df523b3ef959360409388602097528652038282205586815220818154019055604051908152a3565b60405163391434e360e21b81526001600160a01b0391909116600482015260248101929092525060448101839052606490fd5b604051634b637e8f60e11b815260006004820152602490fd5b8061338c575b508061330e5750565b6007546040516323b872dd60e01b81523360048201523060248201526044810192909252602090829060649082906000906001600160a01b03165af18015610b5e576133575750565b6020813d602011613384575b8161337060209383611cad565b810103126102b9576133819061211e565b50565b3d9150613363565b6006546040516323b872dd60e01b81523360048201523060248201526044810192909252602090829060649082906000906001600160a01b03165af18015610b5e5715613305576020813d602011613404575b816133ec60209383611cad565b810103126102b9576133fd9061211e565b5038613305565b3d91506133df565b60015415613ae55761341c613e8f565b61342461212b565b613abb575b6006546040516370a0823160e01b81523060048201526001600160a01b0390911690602081602481855afa908115610b5e57600091613a89575b5015801590613a13575b6134745750565b6040516370a0823160e01b815230600482015290602082602481845afa918215610b5e576000926139df575b506007546040516370a0823160e01b81523060048201526001600160a01b0390911691602082602481865afa918215610b5e576000926139ab575b506134e4611f1a565b939094808611806139a2575b1561396457505060075460065461352195506001600160a01b039182169491169261351b92506121d5565b91613f1e565b600154156136f35760405160c081018181106001600160401b0382111761181c5760405260208101906000825260408101916000835260608201916000835260808101926000845260a08201936000855260015483526024602060018060a01b0360065416604051928380926370a0823160e01b82523060048301525afa908115610b5e576000916136c1575b5084526007546040516370a0823160e01b815230600482015290602090829060249082906001600160a01b03165afa908115610b5e57600091613686575b509160609560009260c49594895283835283815242825260018060a01b036004541692604051998a98899763219f5d1760e01b89525160048901525160248801525160448701525160648601525160848501525160a48401525af18015610b5e576136545750565b6060813d60601161367e575b8161366d60609383611cad565b810103126102b95761338190612434565b3d9150613660565b91939290506020823d6020116136b9575b816136a460209383611cad565b810103126102b95790519192909160606135ec565b3d9150613697565b90506020813d6020116136eb575b816136dc60209383611cad565b810103126102b95751386135ae565b3d91506136cf565b60405161016081018181106001600160401b0382111761181c57604052600060a0820152600060c0820152600060e082015260006101008201526000610120820152600061014082015260018060a01b03600654168082526024602060018060a01b036007541692838286015260005462ffffff811660408701528060601c60020b606087015260781c60020b6080860152604051928380926370a0823160e01b82523060048301525afa908115610b5e57600091613931575b5060a08301526040516370a0823160e01b815230600482015290602090829060249082905afa908115610b5e576000916138ff575b5060c08201908152600060e0830181815261010084018281523061012086019081524261014087019081526004805460408051634418b22b60e11b81528a516001600160a01b039081169482019490945260208b015184166024820152908a015162ffffff16604482015260608a0151600290810b60648301526080808c015190910b608483015260a0909a015160a4820152975160c4890152945160e4880152925161010487015290518216610124860152516101448501529293928492610164928492165af1908115610b5e576000916138bf575b50600155565b90506080813d6080116138f7575b816138da60809383611cad565b810103126102b9576138f0602082519201612434565b50386138b9565b3d91506138cd565b90506020813d602011613929575b8161391a60209383611cad565b810103126102b95751386137e2565b3d915061390d565b90506020813d60201161395c575b8161394c60209383611cad565b810103126102b9575160246137ad565b3d915061393f565b919390928286109182613998575b5050613982575b50505050613521565b61398f9361351b916121d5565b38808080613979565b1190503880613972565b508385106134f0565b90916020823d6020116139d7575b816139c660209383611cad565b810103126128a557505190386134db565b3d91506139b9565b90916020823d602011613a0b575b816139fa60209383611cad565b810103126128a557505190386134a0565b3d91506139ed565b506007546040516370a0823160e01b815230600482015290602090829060249082906001600160a01b03165afa908115610b5e57600091613a57575b50151561346d565b90506020813d602011613a81575b81613a7260209383611cad565b810103126102b9575138613a4f565b3d9150613a65565b90506020813d602011613ab3575b81613aa460209383611cad565b810103126102b9575138613463565b3d9150613a97565b613acb613ac66124f5565b613dbe565b613ad3613e8f565b6000600155613ae0614038565b613429565b613aed612322565b61342957613ae0614038565b6001600160a01b0390808216906401000276a382101580613d8b575b15613d7957640100000000600160c01b039060201b16806001600160801b03811160071b9181831c926001600160401b03841160061b93841c9363ffffffff851160051b94851c9461ffff861160041b95861c60ff9687821160031b91821c92600f841160021b93841c94600160038711811b96871c119617171717171717916080831015600014613d6d5750607e1982011c5b8002607f928392828493841c81841c1c800280851c81851c1c800280861c81861c1c800280871c81871c1c80029081881c82881c1c80029283891c84891c1c800294858a1c868a1c1c800296878b1c888b1c1c800298898c1c8a8c1c1c80029a8b8d1c8c821c1c8002809d1c8d821c1c8002809e81901c90821c1c80029e8f80911c911c1c800260cd1c6604000000000000169d60cc1c6608000000000000169c60cb1c6610000000000000169b60ca1c6620000000000000169a60c91c6640000000000000169960c81c6680000000000000169860c71c670100000000000000169760c61c670200000000000000169660c51c670400000000000000169560c41c670800000000000000169460c31c671000000000000000169360c21c672000000000000000169260c11c674000000000000000169160c01c6780000000000000001690607f190160401b1717171717171717171717171717693627a301d71055774c8502906f028f6481ab7f045a5af012a19d003aa919820160801d60020b916fdb2df09e81959a81455e260799a0632f0160801d60020b92838314600014613d55575050905090565b613d5e84612ac2565b1611613d68575090565b905090565b905081607f031b613ba9565b6040516324c070df60e11b8152600490fd5b5073fffd8963efd1fc6a506488495d951d5263988d268210613b15565b91908260409103126102b9576020825192015190565b604090815160a08101908082106001600160401b0383111761181c578391825260a46020820191600084820160608301608084019060015485526001600160801b03809916875283835283815242825260018060a01b0360045416928851998a988997630624e65f60e11b8952516004890152511660248701525160448601525160648501525160848401525af18015613e8457613e5a575050565b81613e7992903d10613e7d575b613e718183611cad565b810190613da8565b5050565b503d613e67565b82513d6000823e3d90fd5b60408051608081018181106001600160401b0382111761181c57825281602082016084828401936000606082019560015483523085526001600160801b0380825280885260018060a01b03978189600454169389519a8b998a9863fc6f786560e01b8a525160048a01525116602488015251166044860152511660648401525af18015613e8457613e5a575050565b613f298383836128b0565b916040519261010084018481106001600160401b0382111761181c5760409081526001600160a01b039384168552918316602085019081526000805462ffffff90811687860190815230606089019081524260808a0190815260a08a019a8b5260c08a0196875260e08a01858152600354985163414bf38960e01b81529a518a1660048c01529551891660248b015291519092166044890152905186166064880152516084870152955160a4860152905160c485015251821660e48401528391839116815a9361010492602095f1801561402d57614005575050565b602090813d8311614026575b61401b8183611cad565b810103126128a55750565b503d614011565b6040513d84823e3d90fd5b61404061222c565b906000549060601b62ffffff60601b169162ffffff60781b9060781b169065ffffffffffff60601b19161717600055565b611f0192916001600160801b03916001600160a01b03918281168383161161409d575b03169116612eaa565b90614094565b611f019290916001600160a01b0391828216838516116140f2575b6140ea91838116919085900384169060601b6fffffffffffffffffffffffffffffffff60601b16612f79565b911690611fe5565b9092906140be565b60ff60008051602061420a8339815191525460401c161561411757565b604051631afcd79f60e31b8152600490fdfe2ae08a8e29253f69ac5d979a101956ab8f8d9d7ded63fa7a83b16fc47648eab052c63247e1f47db19d5ce0460030c497f067ca4cebf71ba98eeadabe20bace0352c63247e1f47db19d5ce0460030c497f067ca4cebf71ba98eeadabe20bace0052c63247e1f47db19d5ce0460030c497f067ca4cebf71ba98eeadabe20bace049016d09d72d40fdae2fd8ceac6b6234c7706214fd39c1cd1e609a0528c19930052c63247e1f47db19d5ce0460030c497f067ca4cebf71ba98eeadabe20bace0246a2803e59a4de4e7a4c574b1243f25977ac4c77d5a1a4a609b5394cebb4a2aaf0c57e16840df040f15088dc2f81fe391c3923bec73e23a9662efc9c229c6a00a26469706673582212200f443e9630d93fbfc0448173cb5f62788178a4b86e1a98d2ccc79c50798bd26a64736f6c63430008180033",
  "devdoc": {
    "errors": {
      "ERC20InsufficientAllowance(address,uint256,uint256)": [
        {
          "details": "Indicates a failure with the `spender`s `allowance`. Used in transfers.",
          "params": {
            "allowance": "Amount of tokens a `spender` is allowed to operate with.",
            "needed": "Minimum amount required to perform a transfer.",
            "spender": "Address that may be allowed to operate on tokens without being their owner."
          }
        }
      ],
      "ERC20InsufficientBalance(address,uint256,uint256)": [
        {
          "details": "Indicates an error related to the current `balance` of a `sender`. Used in transfers.",
          "params": {
            "balance": "Current balance for the interacting account.",
            "needed": "Minimum amount required to perform a transfer.",
            "sender": "Address whose tokens are being transferred."
          }
        }
      ],
      "ERC20InvalidApprover(address)": [
        {
          "details": "Indicates a failure with the `approver` of a token to be approved. Used in approvals.",
          "params": {
            "approver": "Address initiating an approval operation."
          }
        }
      ],
      "ERC20InvalidReceiver(address)": [
        {
          "details": "Indicates a failure with the token `receiver`. Used in transfers.",
          "params": {
            "receiver": "Address to which tokens are being transferred."
          }
        }
      ],
      "ERC20InvalidSender(address)": [
        {
          "details": "Indicates a failure with the token `sender`. Used in transfers.",
          "params": {
            "sender": "Address whose tokens are being transferred."
          }
        }
      ],
      "ERC20InvalidSpender(address)": [
        {
          "details": "Indicates a failure with the `spender` to be approved. Used in approvals.",
          "params": {
            "spender": "Address that may be allowed to operate on tokens without being their owner."
          }
        }
      ],
      "InvalidInitialization()": [
        {
          "details": "The contract is already initialized."
        }
      ],
      "NotInitializing()": [
        {
          "details": "The contract is not initializing."
        }
      ],
      "OwnableInvalidOwner(address)": [
        {
          "details": "The owner is not a valid owner account. (eg. `address(0)`)"
        }
      ],
      "OwnableUnauthorizedAccount(address)": [
        {
          "details": "The caller account is not authorized to perform an operation."
        }
      ]
    },
    "events": {
      "Approval(address,address,uint256)": {
        "details": "Emitted when the allowance of a `spender` for an `owner` is set by a call to {approve}. `value` is the new allowance."
      },
      "Initialized(uint64)": {
        "details": "Triggered when the contract has been initialized or reinitialized."
      },
      "Transfer(address,address,uint256)": {
        "details": "Emitted when `value` tokens are moved from one account (`from`) to another (`to`). Note that `value` may be zero."
      }
    },
    "kind": "dev",
    "methods": {
      "allowance(address,address)": {
        "details": "See {IERC20-allowance}."
      },
      "approve(address,uint256)": {
        "details": "See {IERC20-approve}. NOTE: If `value` is the maximum `uint256`, the allowance is not updated on `transferFrom`. This is semantically equivalent to an infinite approval. Requirements: - `spender` cannot be the zero address."
      },
      "balanceOf(address)": {
        "details": "See {IERC20-balanceOf}."
      },
      "buyGandalfToken(uint256,uint256,uint256,uint256)": {
        "params": {
          "deadline": "The timestamp at which the transaction will expire",
          "minGandalfTokenAmount": "The minimum amount of the Gandalf token the user is willing to receive",
          "token0Amount": "The amount of token 0 the user wants to spend to buy the Gandalf token",
          "token1Amount": "The amount of token 1 the user wants to spend to buy the Gandalf token"
        }
      },
      "decimals()": {
        "details": "Returns the number of decimals used to get its user representation. For example, if `decimals` equals `2`, a balance of `505` tokens should be displayed to a user as `5.05` (`505 / 10 ** 2`). Tokens usually opt for a value of 18, imitating the relationship between Ether and Wei. This is the default value returned by this function, unless it's overridden. NOTE: This information is only used for _display_ purposes: it in no way affects any of the arithmetic of the contract, including {IERC20-balanceOf} and {IERC20-transfer}."
      },
      "getActualTickLower()": {
        "returns": {
          "actualTickLower": "The actual tick lower of the current liquidity position"
        }
      },
      "getActualTickUpper()": {
        "returns": {
          "actualTickUpper": "The actual tick upper of the current liquidity position"
        }
      },
      "getAmountOutMinimum(address,address,uint256)": {
        "params": {
          "amountIn": "The amount of tokenIn being swapped",
          "tokenIn": "The address of the token being swapped",
          "tokenOut": "The address of the token being swapped for"
        },
        "returns": {
          "amountOutMinimum": "The minimum amount of tokenOut to use for the swap"
        }
      },
      "getCurrentPriceTick()": {
        "returns": {
          "_0": "The tick of the current price"
        }
      },
      "getCurrentPriceTickRounded()": {
        "returns": {
          "_0": "The current price tick rounded"
        }
      },
      "getDesiredReserveAmounts()": {
        "params": {
          "token0Amount": "The desired amount of token0",
          "token1Amount": "The desired amount of token1"
        }
      },
      "getDesiredTickLower()": {
        "returns": {
          "_0": "The desired tick lower"
        }
      },
      "getDesiredTickRange()": {
        "returns": {
          "_0": "The desired tick range"
        }
      },
      "getDesiredTickUpper()": {
        "returns": {
          "_0": "The desired tick upper"
        }
      },
      "getEstimatedTokenOut(address,address,uint256,uint24)": {
        "params": {
          "amountIn": "The amount of tokenIn being swapped",
          "fee": "The fee to apply to the estimated swap",
          "tokenIn": "The address of the token being swapped",
          "tokenOut": "The address of the token being swapped for"
        },
        "returns": {
          "amountOut": "The estimated amount of tokenOut that will be received from the swap"
        }
      },
      "getFeeDenominator()": {
        "returns": {
          "_0": "The fee denominator constant"
        }
      },
      "getGandalfPoolFeeNumerator()": {
        "returns": {
          "_0": "The Gandalf Pool Fee Numerator"
        }
      },
      "getGandalfTokenPriceInToken0()": {
        "returns": {
          "_0": "The price in token 0 scaled by 10^18"
        }
      },
      "getGandalfTokenPriceInToken1()": {
        "returns": {
          "_0": "The price in token 1 scaled by 10^18"
        }
      },
      "getIfLiquidityPositionNeedsUpdate()": {
        "returns": {
          "_0": "bool Indicates whether the liquidity position needs to be updated"
        }
      },
      "getLiquidityPositionLiquidityAmount()": {
        "returns": {
          "liquidityAmount": "The liquidity amount of the current liquidity position"
        }
      },
      "getLiquidityPositionTokenId()": {
        "returns": {
          "_0": "The token ID of the current liquidity position"
        }
      },
      "getLiquidityPositionValueInToken0()": {
        "returns": {
          "_0": "The liquidity position value relative to token0    "
        }
      },
      "getNewDesiredTicks()": {
        "returns": {
          "newDesiredTickLower": "The new tick lower desired for the liquidity position",
          "newDesiredTickUpper": "The new tick upper desired for the liquidity position"
        }
      },
      "getPriceInActualLiquidityRange()": {
        "returns": {
          "priceInLiquidityRange": "Returns true if the current price is within the liquidity position range"
        }
      },
      "getPriceInDesiredLiquidityRange()": {
        "returns": {
          "priceInLiquidityRange": "Returns true if the current price within the desired liquidity position range"
        }
      },
      "getReserveValueInToken0()": {
        "returns": {
          "_0": "The reserve value relative to token0"
        }
      },
      "getSlippageDenominator()": {
        "returns": {
          "_0": "The slippage denominator"
        }
      },
      "getSqrtPriceX96()": {
        "returns": {
          "sqrtPriceX96": "The current price of the Uniswap pool"
        }
      },
      "getTickSpacing()": {
        "returns": {
          "_0": "The pool tick spacing"
        }
      },
      "getToken0()": {
        "returns": {
          "_0": "The token 0 address"
        }
      },
      "getToken1()": {
        "returns": {
          "_0": "The token 1 address"
        }
      },
      "getTokenAmountToReceiveFromSell(uint256,bool)": {
        "params": {
          "gandalfTokenAmountSold": "The amount of Gandalf Token being sold",
          "receiveInToken0": "Boolean indicating whether the user wants to receive token0 or token1"
        },
        "returns": {
          "maxTokenAmountToReceive": "The max amount of the token the user could receive from sell"
        }
      },
      "getTokensSorted(address,address)": {
        "params": {
          "tokenA": "The address of the first unsorted token",
          "tokenB": "The address of the second unsorted token"
        },
        "returns": {
          "token0_": "The address of the sorted token 0",
          "token1_": "The address of the sorted token 1"
        }
      },
      "getTotalValueInToken0()": {
        "returns": {
          "_0": "The total value relative to token0"
        }
      },
      "getTotalValueInToken1()": {
        "returns": {
          "_0": "The total value relative to token0"
        }
      },
      "getUniswapV3FactoryAddress()": {
        "returns": {
          "_0": "The Uniswap v3 Factory Address"
        }
      },
      "getUniswapV3PoolAddress()": {
        "returns": {
          "_0": "The Uniswap v3 Pool Address"
        }
      },
      "getUniswapV3PoolFee()": {
        "returns": {
          "_0": "The Uniswap pool fee"
        }
      },
      "getUniswapV3PoolSlippageNumerator()": {
        "returns": {
          "_0": "The Uniswap Pool Slippage Numerator   "
        }
      },
      "getUniswapV3PositionManagerAddress()": {
        "returns": {
          "_0": "The Uniswap v3 Position Manager Address"
        }
      },
      "getUniswapV3SwapRouterAddress()": {
        "returns": {
          "_0": "The Uniswap v3 Swap Router Address"
        }
      },
      "initialize(address,string,string,address,address,address,address,address,uint24,uint24,uint24,uint24)": {
        "params": {
          "desiredTickRange_": "The initial range in ticks of the liquidity range",
          "gandalfPoolFeeNumerator_": "The fee numerator applied to all buys and sells of the gandalf token",
          "name_": "The name of this contract's ERC-20 token ",
          "owner_": "The address that ownership of the contract gets transferred to",
          "symbol_": "The symbol of this contract's ERC-20 token",
          "tokenA_": "The address of the unsorted token A of the Uniswap pool liquidity is being provided to",
          "tokenB_": "The address of the unsorted token B of the Uniswap pool liquidity is being provided to",
          "uniswapV3FactoryAddress_": "The address of the Uniswap v3 Factory contract",
          "uniswapV3PoolFee_": "The fee of the Uniswap pool liquidity is being provided to",
          "uniswapV3PoolSlippageNumerator_": "The numerator of the maximum amount of slippage to allow for swaps",
          "uniswapV3PositionManagerAddress_": "The address of the Uniswap v3 Position Manager contract",
          "uniswapV3SwapRouterAddress_": "The address of the Uniswap v3 Swap Router contract"
        }
      },
      "name()": {
        "details": "Returns the name of the token."
      },
      "owner()": {
        "details": "Returns the address of the current owner."
      },
      "renounceOwnership()": {
        "details": "Leaves the contract without owner. It will not be possible to call `onlyOwner` functions. Can only be called by the current owner. NOTE: Renouncing ownership will leave the contract without an owner, thereby disabling any functionality that is only available to the owner."
      },
      "sellGandalfToken(uint256,uint256,bool,uint256)": {
        "params": {
          "deadline": "The timestamp at which the transaction will expire",
          "gandalfTokenAmount": "The amount of Gandalf token the user wants to sell",
          "minTokenAmountToReceive": "The minimum amount of token0 or token1 the user is willing to receive",
          "receiveInToken0": "Boolean indicating whether the user wants to receive token0 or token1"
        }
      },
      "setDesiredTickRange(uint24)": {
        "params": {
          "desiredTickRange_": "The new Desired Tick Range"
        }
      },
      "setGandalfPoolFeeNumerator(uint24)": {
        "params": {
          "gandalfPoolFeeNumerator_": "The new Gandalf Pool Fee Numerator"
        }
      },
      "setUniswapV3PoolSlippageNumerator(uint24)": {
        "params": {
          "uniswapV3PoolSlippageNumerator_": "The new Uniswap v3 Pool Slippage Numerator"
        }
      },
      "symbol()": {
        "details": "Returns the symbol of the token, usually a shorter version of the name."
      },
      "totalSupply()": {
        "details": "See {IERC20-totalSupply}."
      },
      "transfer(address,uint256)": {
        "details": "See {IERC20-transfer}. Requirements: - `to` cannot be the zero address. - the caller must have a balance of at least `value`."
      },
      "transferFrom(address,address,uint256)": {
        "details": "See {IERC20-transferFrom}. Emits an {Approval} event indicating the updated allowance. This is not required by the EIP. See the note at the beginning of {ERC20}. NOTE: Does not update the allowance if the current allowance is the maximum `uint256`. Requirements: - `from` and `to` cannot be the zero address. - `from` must have a balance of at least `value`. - the caller must have allowance for ``from``'s tokens of at least `value`."
      },
      "transferOwnership(address)": {
        "details": "Transfers ownership of the contract to a new account (`newOwner`). Can only be called by the current owner."
      }
    },
    "version": 1
  },
  "userdoc": {
    "kind": "user",
    "methods": {
      "buyGandalfToken(uint256,uint256,uint256,uint256)": {
        "notice": "Allows the user to buy gandalf token using any amount of token0 and token1The Amount of gandalf token the user receives represents their share of the liquidity position"
      },
      "getActualTickLower()": {
        "notice": "Returns the actual tick lower of the current liquidity position"
      },
      "getActualTickUpper()": {
        "notice": "Returns the actual tick upper of the current liquidity position"
      },
      "getAmountOutMinimum(address,address,uint256)": {
        "notice": "Gets the amount out minimum to use for a swap, according to the configured allowable slippage numerator"
      },
      "getCurrentPriceTick()": {
        "notice": "Returns the current price of the Uniswap pool represented as a tick"
      },
      "getCurrentPriceTickRounded()": {
        "notice": "Gets the current price represented as a tick, rounded according to the tick spacing"
      },
      "getDesiredReserveAmounts()": {
        "notice": "Returns the desired reserve amounts of token0 and token1 that are neededto add the maximum amount of liquidity to the current liquidity position"
      },
      "getDesiredTickLower()": {
        "notice": "Returns the desired tick lower"
      },
      "getDesiredTickRange()": {
        "notice": "Returns the desired tick range"
      },
      "getDesiredTickUpper()": {
        "notice": "Returns the desired tick upper"
      },
      "getEstimatedTokenOut(address,address,uint256,uint24)": {
        "notice": "Gets the estimated token amount out from a swap. This calculation takes into accountthe pool fee, but assumes that no slippage occurs"
      },
      "getFeeDenominator()": {
        "notice": "Returns the fee denominator constant"
      },
      "getGandalfPoolFeeNumerator()": {
        "notice": "Returns the Gandalf pool fee numerator, that gets divided by FEE_DENOMINATORto calculate the fee percentage"
      },
      "getGandalfTokenPriceInToken0()": {
        "notice": "Returns the price of the Gandalf token relative to token 0 scaled by 10^18"
      },
      "getGandalfTokenPriceInToken1()": {
        "notice": "Returns the price of the Gandalf token relative to token 1 scaled by 10^18"
      },
      "getIfLiquidityPositionNeedsUpdate()": {
        "notice": "Returns whether the liquidity position needs an updateThis can return true when the price has moved outside of the current liquidity position range,or when the desired tick range has been updated by the owner"
      },
      "getIsTickRangeValid(uint24)": {
        "notice": "Returns whether the specified tick range is valid. For the tick range to be valid, it needs to be evenlydivisible by the tick spacing, and be greater than or equal to (tickSpacing * 2)"
      },
      "getLiquidityPositionLiquidityAmount()": {
        "notice": "Returns the total liquidity amount held by the current liquidity position"
      },
      "getLiquidityPositionTokenId()": {
        "notice": "Returns the token ID of the current liquidity position"
      },
      "getLiquidityPositionValueInToken0()": {
        "notice": "Gets the value of token0 and token1 held by the liquidity position in terms of token0 value"
      },
      "getNewDesiredTicks()": {
        "notice": "Gets the desired tickLower and tickUpper based on the current price and the desiredTickRange"
      },
      "getPriceInActualLiquidityRange()": {
        "notice": "Returns whether the current Uniswap pool price is within the liquidity position range"
      },
      "getPriceInDesiredLiquidityRange()": {
        "notice": "Returns whether the current Uniswap pool price within the desired liquidity position range"
      },
      "getReserveValueInToken0()": {
        "notice": "Gets the value of token0 and token1 held by this contract in terms of token0 value"
      },
      "getSlippageDenominator()": {
        "notice": "Returns the slippage denominator used for calculating the allowable slippage percentage"
      },
      "getSqrtPriceX96()": {
        "notice": "Returns the current sqrtPriceX96 of the Uniswap pool"
      },
      "getTickSpacing()": {
        "notice": "Gets the tick spacing of the Uniswap pool"
      },
      "getToken0()": {
        "notice": "Returns the address of token 0 of the Uniswap pool"
      },
      "getToken1()": {
        "notice": "Returns the address of token 1 of the Uniswap pool"
      },
      "getTokenAmountToReceiveFromSell(uint256,bool)": {
        "notice": "Gets the estimated amount of token0 or token1 user will receive when sellingthe specified amount of Gandalf Token"
      },
      "getTokensSorted(address,address)": {
        "notice": "Takes the address of two unsorted tokens and returns the tokens sorted for use with Uniswap v3"
      },
      "getTotalValueInToken0()": {
        "notice": "Gets the total value (reserves + liquidity position) in terms of token 0 value"
      },
      "getTotalValueInToken1()": {
        "notice": "Gets the total value (reserves + liquidity position) in terms of token 0 value"
      },
      "getUniswapV3FactoryAddress()": {
        "notice": "Returns the address of the Uniswap v3 Factory Address"
      },
      "getUniswapV3PoolAddress()": {
        "notice": "Returns the Uniswap v3 Pool Address"
      },
      "getUniswapV3PoolFee()": {
        "notice": "Returns the pool fee of the Uniswap pool liquidity is being provided to"
      },
      "getUniswapV3PoolSlippageNumerator()": {
        "notice": "Returns the Gandalf pool fee numerator, that gets divided by SLIPPAGE_DENOMINATORto calculate the slippage percentage"
      },
      "getUniswapV3PositionManagerAddress()": {
        "notice": "Returns the Uniswap v3 Position Manager Address"
      },
      "getUniswapV3SwapRouterAddress()": {
        "notice": "Returns the Uniswap v3 Swap Router Address"
      },
      "rebalance()": {
        "notice": "Rebalances the liquidity position by collecting fees, moving desired liquidity range ticks if needed,Making swaps between token0 and token1 if needed, and adding to liquidity position if funds are available"
      },
      "sellGandalfToken(uint256,uint256,bool,uint256)": {
        "notice": "Allows a user to sell their gandalf tokens for their share of the liquidity positionAnd receive either token0 or token1 in return"
      },
      "setDesiredTickRange(uint24)": {
        "notice": "Allows the owner to set a new Desired Tick Range"
      },
      "setGandalfPoolFeeNumerator(uint24)": {
        "notice": "Allows the owner to set a new Gandalf Pool Fee Numerator"
      },
      "setUniswapV3PoolSlippageNumerator(uint24)": {
        "notice": "Allows the owner to set a new Uniswap v3 Pool Slippage Numerator"
      }
    },
    "version": 1
  },
  "storageLayout": {
    "storage": [
      {
        "astId": 2115,
        "contract": "contracts/GandalfPool.sol:GandalfPool",
        "label": "uniswapV3PoolFee",
        "offset": 0,
        "slot": "0",
        "type": "t_uint24"
      },
      {
        "astId": 2117,
        "contract": "contracts/GandalfPool.sol:GandalfPool",
        "label": "gandalfPoolFeeNumerator",
        "offset": 3,
        "slot": "0",
        "type": "t_uint24"
      },
      {
        "astId": 2119,
        "contract": "contracts/GandalfPool.sol:GandalfPool",
        "label": "uniswapV3PoolSlippageNumerator",
        "offset": 6,
        "slot": "0",
        "type": "t_uint24"
      },
      {
        "astId": 2121,
        "contract": "contracts/GandalfPool.sol:GandalfPool",
        "label": "desiredTickRange",
        "offset": 9,
        "slot": "0",
        "type": "t_uint24"
      },
      {
        "astId": 2123,
        "contract": "contracts/GandalfPool.sol:GandalfPool",
        "label": "desiredTickLower",
        "offset": 12,
        "slot": "0",
        "type": "t_int24"
      },
      {
        "astId": 2125,
        "contract": "contracts/GandalfPool.sol:GandalfPool",
        "label": "desiredTickUpper",
        "offset": 15,
        "slot": "0",
        "type": "t_int24"
      },
      {
        "astId": 2127,
        "contract": "contracts/GandalfPool.sol:GandalfPool",
        "label": "liquidityPositionTokenId",
        "offset": 0,
        "slot": "1",
        "type": "t_uint256"
      },
      {
        "astId": 2129,
        "contract": "contracts/GandalfPool.sol:GandalfPool",
        "label": "uniswapV3FactoryAddress",
        "offset": 0,
        "slot": "2",
        "type": "t_address"
      },
      {
        "astId": 2131,
        "contract": "contracts/GandalfPool.sol:GandalfPool",
        "label": "uniswapV3SwapRouterAddress",
        "offset": 0,
        "slot": "3",
        "type": "t_address"
      },
      {
        "astId": 2133,
        "contract": "contracts/GandalfPool.sol:GandalfPool",
        "label": "uniswapV3PositionManagerAddress",
        "offset": 0,
        "slot": "4",
        "type": "t_address"
      },
      {
        "astId": 2135,
        "contract": "contracts/GandalfPool.sol:GandalfPool",
        "label": "uniswapV3PoolAddress",
        "offset": 0,
        "slot": "5",
        "type": "t_address"
      },
      {
        "astId": 2137,
        "contract": "contracts/GandalfPool.sol:GandalfPool",
        "label": "token0",
        "offset": 0,
        "slot": "6",
        "type": "t_address"
      },
      {
        "astId": 2139,
        "contract": "contracts/GandalfPool.sol:GandalfPool",
        "label": "token1",
        "offset": 0,
        "slot": "7",
        "type": "t_address"
      }
    ],
    "types": {
      "t_address": {
        "encoding": "inplace",
        "label": "address",
        "numberOfBytes": "20"
      },
      "t_int24": {
        "encoding": "inplace",
        "label": "int24",
        "numberOfBytes": "3"
      },
      "t_uint24": {
        "encoding": "inplace",
        "label": "uint24",
        "numberOfBytes": "3"
      },
      "t_uint256": {
        "encoding": "inplace",
        "label": "uint256",
        "numberOfBytes": "32"
      }
    }
  }
}